{
  "_format": "hh3-artifact-1",
  "contractName": "PotluckVault",
  "sourceName": "contracts/PotluckVault.sol",
  "abi": [
    {
      "inputs": [
        {
          "internalType": "contract IERC20",
          "name": "_asset",
          "type": "address"
        },
        {
          "internalType": "contract PotluckTickets",
          "name": "_tickets",
          "type": "address"
        },
        {
          "internalType": "address",
          "name": "_prizePool",
          "type": "address"
        }
      ],
      "stateMutability": "nonpayable",
      "type": "constructor"
    },
    {
      "inputs": [
        {
          "internalType": "address",
          "name": "spender",
          "type": "address"
        },
        {
          "internalType": "uint256",
          "name": "allowance",
          "type": "uint256"
        },
        {
          "internalType": "uint256",
          "name": "needed",
          "type": "uint256"
        }
      ],
      "name": "ERC20InsufficientAllowance",
      "type": "error"
    },
    {
      "inputs": [
        {
          "internalType": "address",
          "name": "sender",
          "type": "address"
        },
        {
          "internalType": "uint256",
          "name": "balance",
          "type": "uint256"
        },
        {
          "internalType": "uint256",
          "name": "needed",
          "type": "uint256"
        }
      ],
      "name": "ERC20InsufficientBalance",
      "type": "error"
    },
    {
      "inputs": [
        {
          "internalType": "address",
          "name": "approver",
          "type": "address"
        }
      ],
      "name": "ERC20InvalidApprover",
      "type": "error"
    },
    {
      "inputs": [
        {
          "internalType": "address",
          "name": "receiver",
          "type": "address"
        }
      ],
      "name": "ERC20InvalidReceiver",
      "type": "error"
    },
    {
      "inputs": [
        {
          "internalType": "address",
          "name": "sender",
          "type": "address"
        }
      ],
      "name": "ERC20InvalidSender",
      "type": "error"
    },
    {
      "inputs": [
        {
          "internalType": "address",
          "name": "spender",
          "type": "address"
        }
      ],
      "name": "ERC20InvalidSpender",
      "type": "error"
    },
    {
      "inputs": [
        {
          "internalType": "address",
          "name": "receiver",
          "type": "address"
        },
        {
          "internalType": "uint256",
          "name": "assets",
          "type": "uint256"
        },
        {
          "internalType": "uint256",
          "name": "max",
          "type": "uint256"
        }
      ],
      "name": "ERC4626ExceededMaxDeposit",
      "type": "error"
    },
    {
      "inputs": [
        {
          "internalType": "address",
          "name": "receiver",
          "type": "address"
        },
        {
          "internalType": "uint256",
          "name": "shares",
          "type": "uint256"
        },
        {
          "internalType": "uint256",
          "name": "max",
          "type": "uint256"
        }
      ],
      "name": "ERC4626ExceededMaxMint",
      "type": "error"
    },
    {
      "inputs": [
        {
          "internalType": "address",
          "name": "owner",
          "type": "address"
        },
        {
          "internalType": "uint256",
          "name": "shares",
          "type": "uint256"
        },
        {
          "internalType": "uint256",
          "name": "max",
          "type": "uint256"
        }
      ],
      "name": "ERC4626ExceededMaxRedeem",
      "type": "error"
    },
    {
      "inputs": [
        {
          "internalType": "address",
          "name": "owner",
          "type": "address"
        },
        {
          "internalType": "uint256",
          "name": "assets",
          "type": "uint256"
        },
        {
          "internalType": "uint256",
          "name": "max",
          "type": "uint256"
        }
      ],
      "name": "ERC4626ExceededMaxWithdraw",
      "type": "error"
    },
    {
      "inputs": [
        {
          "internalType": "address",
          "name": "owner",
          "type": "address"
        }
      ],
      "name": "OwnableInvalidOwner",
      "type": "error"
    },
    {
      "inputs": [
        {
          "internalType": "address",
          "name": "account",
          "type": "address"
        }
      ],
      "name": "OwnableUnauthorizedAccount",
      "type": "error"
    },
    {
      "inputs": [
        {
          "internalType": "address",
          "name": "token",
          "type": "address"
        }
      ],
      "name": "SafeERC20FailedOperation",
      "type": "error"
    },
    {
      "anonymous": false,
      "inputs": [
        {
          "indexed": true,
          "internalType": "address",
          "name": "owner",
          "type": "address"
        },
        {
          "indexed": true,
          "internalType": "address",
          "name": "spender",
          "type": "address"
        },
        {
          "indexed": false,
          "internalType": "uint256",
          "name": "value",
          "type": "uint256"
        }
      ],
      "name": "Approval",
      "type": "event"
    },
    {
      "anonymous": false,
      "inputs": [
        {
          "indexed": true,
          "internalType": "address",
          "name": "sender",
          "type": "address"
        },
        {
          "indexed": true,
          "internalType": "address",
          "name": "owner",
          "type": "address"
        },
        {
          "indexed": false,
          "internalType": "uint256",
          "name": "assets",
          "type": "uint256"
        },
        {
          "indexed": false,
          "internalType": "uint256",
          "name": "shares",
          "type": "uint256"
        }
      ],
      "name": "Deposit",
      "type": "event"
    },
    {
      "anonymous": false,
      "inputs": [
        {
          "indexed": true,
          "internalType": "address",
          "name": "previousOwner",
          "type": "address"
        },
        {
          "indexed": true,
          "internalType": "address",
          "name": "newOwner",
          "type": "address"
        }
      ],
      "name": "OwnershipTransferred",
      "type": "event"
    },
    {
      "anonymous": false,
      "inputs": [
        {
          "indexed": true,
          "internalType": "address",
          "name": "from",
          "type": "address"
        },
        {
          "indexed": true,
          "internalType": "address",
          "name": "to",
          "type": "address"
        },
        {
          "indexed": false,
          "internalType": "uint256",
          "name": "value",
          "type": "uint256"
        }
      ],
      "name": "Transfer",
      "type": "event"
    },
    {
      "anonymous": false,
      "inputs": [
        {
          "indexed": true,
          "internalType": "address",
          "name": "sender",
          "type": "address"
        },
        {
          "indexed": true,
          "internalType": "address",
          "name": "receiver",
          "type": "address"
        },
        {
          "indexed": true,
          "internalType": "address",
          "name": "owner",
          "type": "address"
        },
        {
          "indexed": false,
          "internalType": "uint256",
          "name": "assets",
          "type": "uint256"
        },
        {
          "indexed": false,
          "internalType": "uint256",
          "name": "shares",
          "type": "uint256"
        }
      ],
      "name": "Withdraw",
      "type": "event"
    },
    {
      "inputs": [
        {
          "internalType": "address",
          "name": "owner",
          "type": "address"
        },
        {
          "internalType": "address",
          "name": "spender",
          "type": "address"
        }
      ],
      "name": "allowance",
      "outputs": [
        {
          "internalType": "uint256",
          "name": "",
          "type": "uint256"
        }
      ],
      "stateMutability": "view",
      "type": "function"
    },
    {
      "inputs": [
        {
          "internalType": "address",
          "name": "spender",
          "type": "address"
        },
        {
          "internalType": "uint256",
          "name": "value",
          "type": "uint256"
        }
      ],
      "name": "approve",
      "outputs": [
        {
          "internalType": "bool",
          "name": "",
          "type": "bool"
        }
      ],
      "stateMutability": "nonpayable",
      "type": "function"
    },
    {
      "inputs": [],
      "name": "asset",
      "outputs": [
        {
          "internalType": "address",
          "name": "",
          "type": "address"
        }
      ],
      "stateMutability": "view",
      "type": "function"
    },
    {
      "inputs": [
        {
          "internalType": "address",
          "name": "account",
          "type": "address"
        }
      ],
      "name": "balanceOf",
      "outputs": [
        {
          "internalType": "uint256",
          "name": "",
          "type": "uint256"
        }
      ],
      "stateMutability": "view",
      "type": "function"
    },
    {
      "inputs": [
        {
          "internalType": "uint256",
          "name": "shares",
          "type": "uint256"
        }
      ],
      "name": "convertToAssets",
      "outputs": [
        {
          "internalType": "uint256",
          "name": "",
          "type": "uint256"
        }
      ],
      "stateMutability": "view",
      "type": "function"
    },
    {
      "inputs": [
        {
          "internalType": "uint256",
          "name": "assets",
          "type": "uint256"
        }
      ],
      "name": "convertToShares",
      "outputs": [
        {
          "internalType": "uint256",
          "name": "",
          "type": "uint256"
        }
      ],
      "stateMutability": "view",
      "type": "function"
    },
    {
      "inputs": [],
      "name": "decimals",
      "outputs": [
        {
          "internalType": "uint8",
          "name": "",
          "type": "uint8"
        }
      ],
      "stateMutability": "view",
      "type": "function"
    },
    {
      "inputs": [
        {
          "internalType": "uint256",
          "name": "assets",
          "type": "uint256"
        },
        {
          "internalType": "address",
          "name": "receiver",
          "type": "address"
        }
      ],
      "name": "deposit",
      "outputs": [
        {
          "internalType": "uint256",
          "name": "",
          "type": "uint256"
        }
      ],
      "stateMutability": "nonpayable",
      "type": "function"
    },
    {
      "inputs": [
        {
          "internalType": "uint256",
          "name": "amount",
          "type": "uint256"
        }
      ],
      "name": "injectYield",
      "outputs": [],
      "stateMutability": "nonpayable",
      "type": "function"
    },
    {
      "inputs": [
        {
          "internalType": "address",
          "name": "",
          "type": "address"
        }
      ],
      "name": "maxDeposit",
      "outputs": [
        {
          "internalType": "uint256",
          "name": "",
          "type": "uint256"
        }
      ],
      "stateMutability": "view",
      "type": "function"
    },
    {
      "inputs": [
        {
          "internalType": "address",
          "name": "",
          "type": "address"
        }
      ],
      "name": "maxMint",
      "outputs": [
        {
          "internalType": "uint256",
          "name": "",
          "type": "uint256"
        }
      ],
      "stateMutability": "view",
      "type": "function"
    },
    {
      "inputs": [
        {
          "internalType": "address",
          "name": "owner",
          "type": "address"
        }
      ],
      "name": "maxRedeem",
      "outputs": [
        {
          "internalType": "uint256",
          "name": "",
          "type": "uint256"
        }
      ],
      "stateMutability": "view",
      "type": "function"
    },
    {
      "inputs": [
        {
          "internalType": "address",
          "name": "owner",
          "type": "address"
        }
      ],
      "name": "maxWithdraw",
      "outputs": [
        {
          "internalType": "uint256",
          "name": "",
          "type": "uint256"
        }
      ],
      "stateMutability": "view",
      "type": "function"
    },
    {
      "inputs": [
        {
          "internalType": "uint256",
          "name": "shares",
          "type": "uint256"
        },
        {
          "internalType": "address",
          "name": "receiver",
          "type": "address"
        }
      ],
      "name": "mint",
      "outputs": [
        {
          "internalType": "uint256",
          "name": "",
          "type": "uint256"
        }
      ],
      "stateMutability": "nonpayable",
      "type": "function"
    },
    {
      "inputs": [],
      "name": "name",
      "outputs": [
        {
          "internalType": "string",
          "name": "",
          "type": "string"
        }
      ],
      "stateMutability": "view",
      "type": "function"
    },
    {
      "inputs": [],
      "name": "owner",
      "outputs": [
        {
          "internalType": "address",
          "name": "",
          "type": "address"
        }
      ],
      "stateMutability": "view",
      "type": "function"
    },
    {
      "inputs": [
        {
          "internalType": "uint256",
          "name": "assets",
          "type": "uint256"
        }
      ],
      "name": "previewDeposit",
      "outputs": [
        {
          "internalType": "uint256",
          "name": "",
          "type": "uint256"
        }
      ],
      "stateMutability": "view",
      "type": "function"
    },
    {
      "inputs": [
        {
          "internalType": "uint256",
          "name": "shares",
          "type": "uint256"
        }
      ],
      "name": "previewMint",
      "outputs": [
        {
          "internalType": "uint256",
          "name": "",
          "type": "uint256"
        }
      ],
      "stateMutability": "view",
      "type": "function"
    },
    {
      "inputs": [
        {
          "internalType": "uint256",
          "name": "shares",
          "type": "uint256"
        }
      ],
      "name": "previewRedeem",
      "outputs": [
        {
          "internalType": "uint256",
          "name": "",
          "type": "uint256"
        }
      ],
      "stateMutability": "view",
      "type": "function"
    },
    {
      "inputs": [
        {
          "internalType": "uint256",
          "name": "assets",
          "type": "uint256"
        }
      ],
      "name": "previewWithdraw",
      "outputs": [
        {
          "internalType": "uint256",
          "name": "",
          "type": "uint256"
        }
      ],
      "stateMutability": "view",
      "type": "function"
    },
    {
      "inputs": [],
      "name": "prizePool",
      "outputs": [
        {
          "internalType": "address",
          "name": "",
          "type": "address"
        }
      ],
      "stateMutability": "view",
      "type": "function"
    },
    {
      "inputs": [
        {
          "internalType": "uint256",
          "name": "shares",
          "type": "uint256"
        },
        {
          "internalType": "address",
          "name": "receiver",
          "type": "address"
        },
        {
          "internalType": "address",
          "name": "owner",
          "type": "address"
        }
      ],
      "name": "redeem",
      "outputs": [
        {
          "internalType": "uint256",
          "name": "",
          "type": "uint256"
        }
      ],
      "stateMutability": "nonpayable",
      "type": "function"
    },
    {
      "inputs": [],
      "name": "renounceOwnership",
      "outputs": [],
      "stateMutability": "nonpayable",
      "type": "function"
    },
    {
      "inputs": [
        {
          "internalType": "address",
          "name": "_prizePool",
          "type": "address"
        }
      ],
      "name": "setPrizePool",
      "outputs": [],
      "stateMutability": "nonpayable",
      "type": "function"
    },
    {
      "inputs": [],
      "name": "sweepYield",
      "outputs": [],
      "stateMutability": "nonpayable",
      "type": "function"
    },
    {
      "inputs": [],
      "name": "symbol",
      "outputs": [
        {
          "internalType": "string",
          "name": "",
          "type": "string"
        }
      ],
      "stateMutability": "view",
      "type": "function"
    },
    {
      "inputs": [],
      "name": "tickets",
      "outputs": [
        {
          "internalType": "contract PotluckTickets",
          "name": "",
          "type": "address"
        }
      ],
      "stateMutability": "view",
      "type": "function"
    },
    {
      "inputs": [],
      "name": "ticketsPerAsset",
      "outputs": [
        {
          "internalType": "uint256",
          "name": "",
          "type": "uint256"
        }
      ],
      "stateMutability": "view",
      "type": "function"
    },
    {
      "inputs": [],
      "name": "totalAssets",
      "outputs": [
        {
          "internalType": "uint256",
          "name": "",
          "type": "uint256"
        }
      ],
      "stateMutability": "view",
      "type": "function"
    },
    {
      "inputs": [],
      "name": "totalSupply",
      "outputs": [
        {
          "internalType": "uint256",
          "name": "",
          "type": "uint256"
        }
      ],
      "stateMutability": "view",
      "type": "function"
    },
    {
      "inputs": [
        {
          "internalType": "address",
          "name": "to",
          "type": "address"
        },
        {
          "internalType": "uint256",
          "name": "value",
          "type": "uint256"
        }
      ],
      "name": "transfer",
      "outputs": [
        {
          "internalType": "bool",
          "name": "",
          "type": "bool"
        }
      ],
      "stateMutability": "nonpayable",
      "type": "function"
    },
    {
      "inputs": [
        {
          "internalType": "address",
          "name": "from",
          "type": "address"
        },
        {
          "internalType": "address",
          "name": "to",
          "type": "address"
        },
        {
          "internalType": "uint256",
          "name": "value",
          "type": "uint256"
        }
      ],
      "name": "transferFrom",
      "outputs": [
        {
          "internalType": "bool",
          "name": "",
          "type": "bool"
        }
      ],
      "stateMutability": "nonpayable",
      "type": "function"
    },
    {
      "inputs": [
        {
          "internalType": "address",
          "name": "newOwner",
          "type": "address"
        }
      ],
      "name": "transferOwnership",
      "outputs": [],
      "stateMutability": "nonpayable",
      "type": "function"
    },
    {
      "inputs": [
        {
          "internalType": "uint256",
          "name": "assets",
          "type": "uint256"
        },
        {
          "internalType": "address",
          "name": "receiver",
          "type": "address"
        },
        {
          "internalType": "address",
          "name": "owner",
          "type": "address"
        }
      ],
      "name": "withdraw",
      "outputs": [
        {
          "internalType": "uint256",
          "name": "",
          "type": "uint256"
        }
      ],
      "stateMutability": "nonpayable",
      "type": "function"
    }
  ],
  "bytecode": "0x60c06040526001600855348015610014575f5ffd5b50604051611afd380380611afd8339810160408190526100339161024e565b33836040518060400160405280600f81526020016e141bdd1b1d58dac811195c1bdcda5d608a1b81525060405180604001604052806005815260200164705553444360d81b815250816003908161008a9190610330565b5060046100978282610330565b5050505f5f6100ab8361013460201b60201c565b91509150816100bb5760126100bd565b805b60ff1660a05250506001600160a01b0390811660805281166100f857604051631e4fbdf760e01b81525f600482015260240160405180910390fd5b610101816101c5565b50600680546001600160a01b039384166001600160a01b03199182161790915560078054929093169116179055506103ea565b5f808061014060405190565b6040805160048152602481019091526020810180516001600160e01b0390811663313ce56760e01b179091529192505f9182916101809188919061021616565b50909250905061018f83604052565b81801561019d575060203d10155b80156101aa575060ff8111155b6101b5575f5f6101b9565b6001815b94509450505050915091565b600580546001600160a01b038381166001600160a01b0319831681179093556040519116919082907f8be0079c531659141344cd1fd0a4f28419497f9722a3daafe3b4186f6b6457e0905f90a35050565b5f5f5f60405f855160208701885afa92505f51915060205190509250925092565b6001600160a01b038116811461024b575f5ffd5b50565b5f5f5f60608486031215610260575f5ffd5b835161026b81610237565b602085015190935061027c81610237565b604085015190925061028d81610237565b809150509250925092565b634e487b7160e01b5f52604160045260245ffd5b600181811c908216806102c057607f821691505b6020821081036102de57634e487b7160e01b5f52602260045260245ffd5b50919050565b601f82111561032b57805f5260205f20601f840160051c810160208510156103095750805b601f840160051c820191505b81811015610328575f8155600101610315565b50505b505050565b81516001600160401b0381111561034957610349610298565b61035d8161035784546102ac565b846102e4565b6020601f82116001811461038f575f83156103785750848201515b5f19600385901b1c1916600184901b178455610328565b5f84815260208120601f198516915b828110156103be578785015182556020948501946001909201910161039e565b50848210156103db57868401515f19600387901b60f8161c191681555b50505050600190811b01905550565b60805160a0516116c86104355f395f61076601525f8181610302015281816104a2015281816105f5015281816106a1015281816109a901528181610fe9015261107d01526116c85ff3fe608060405234801561000f575f5ffd5b50600436106101fd575f3560e01c8063715018a611610114578063ba087652116100a9578063ce96cb7711610079578063ce96cb771461042e578063d905777e14610441578063dd62ed3e14610454578063ef8b30f714610408578063f2fde38b1461048c575f5ffd5b8063ba087652146103f5578063c63d75b614610326578063c6e6f59214610408578063cc2587f21461041b575f5ffd5b806395d89b41116100e457806395d89b41146103b4578063a9059cbb146103bc578063b3d7f6b9146103cf578063b460af94146103e2575f5ffd5b8063715018a614610375578063719ce73e1461037d5780638da5cb5b1461039057806394bf804d146103a1575f5ffd5b8063218585211161019557806338d52e0f1161016557806338d52e0f14610300578063402d267d146103265780634cdad506146102315780636e553f651461033a57806370a082311461034d575f5ffd5b8063218585211461029557806323b872dd146102c0578063313ce567146102d3578063336c6d39146102ed575f5ffd5b80630a28a477116101d05780630a28a477146102675780630fa558051461027a57806318160ddd146102845780631a57275b1461028c575f5ffd5b806301e1d1141461020157806306fdde031461021c57806307a2d13a14610231578063095ea7b314610244575b5f5ffd5b61020961049f565b6040519081526020015b60405180910390f35b61022461052e565b60405161021391906112e6565b61020961023f36600461131b565b6105be565b61025761025236600461134d565b6105cf565b6040519015158152602001610213565b61020961027536600461131b565b6105e6565b6102826105f2565b005b600254610209565b61020960085481565b6006546102a8906001600160a01b031681565b6040516001600160a01b039091168152602001610213565b6102576102ce366004611375565b61073a565b6102db61075f565b60405160ff9091168152602001610213565b6102826102fb3660046113af565b61078a565b7f00000000000000000000000000000000000000000000000000000000000000006102a8565b6102096103343660046113af565b505f1990565b6102096103483660046113c8565b6107b4565b61020961035b3660046113af565b6001600160a01b03165f9081526020819052604090205490565b610282610846565b6007546102a8906001600160a01b031681565b6005546001600160a01b03166102a8565b6102096103af3660046113c8565b610859565b61022461088a565b6102576103ca36600461134d565b610899565b6102096103dd36600461131b565b6108a6565b6102096103f03660046113f2565b6108b2565b6102096104033660046113f2565b610946565b61020961041636600461131b565b61099c565b61028261042936600461131b565b6109a7565b61020961043c3660046113af565b610a3e565b61020961044f3660046113af565b610a47565b61020961046236600461142b565b6001600160a01b039182165f90815260016020908152604080832093909416825291909152205490565b61028261049a3660046113af565b610a64565b5f7f00000000000000000000000000000000000000000000000000000000000000006040516370a0823160e01b81523060048201526001600160a01b0391909116906370a0823190602401602060405180830381865afa158015610505573d5f5f3e3d5ffd5b505050506040513d601f19601f820116820180604052508101906105299190611453565b905090565b60606003805461053d9061146a565b80601f01602080910402602001604051908101604052809291908181526020018280546105699061146a565b80156105b45780601f1061058b576101008083540402835291602001916105b4565b820191905f5260205f20905b81548152906001019060200180831161059757829003601f168201915b5050505050905090565b5f6105c9825f610aa1565b92915050565b5f336105dc818585610ad9565b5060019392505050565b5f6105c9826001610aeb565b5f7f00000000000000000000000000000000000000000000000000000000000000006040516370a0823160e01b81523060048201526001600160a01b0391909116906370a0823190602401602060405180830381865afa158015610658573d5f5f3e3d5ffd5b505050506040513d601f19601f8201168201806040525081019061067c9190611453565b90505f61068860025490565b905080821115610736575f61069d82846114b6565b90507f000000000000000000000000000000000000000000000000000000000000000060075460405163a9059cbb60e01b81526001600160a01b0391821660048201526024810184905291169063a9059cbb906044016020604051808303815f875af115801561070f573d5f5f3e3d5ffd5b505050506040513d601f19601f8201168201806040525081019061073391906114c9565b50505b5050565b5f33610747858285610b1a565b610752858585610b7d565b60019150505b9392505050565b5f610529817f00000000000000000000000000000000000000000000000000000000000000006114e8565b610792610bda565b600780546001600160a01b0319166001600160a01b0392909216919091179055565b5f5f6107c08484610c07565b6006546008549192506001600160a01b0316906340c10f199085906107e59088611501565b6040516001600160e01b031960e085901b1681526001600160a01b03909216600483015260248201526044015f604051808303815f87803b158015610828575f5ffd5b505af115801561083a573d5f5f3e3d5ffd5b50929695505050505050565b61084e610bda565b6108575f610c22565b565b5f5f1961086a565b60405180910390fd5b5f610874856108a6565b905061088233858388610c73565b949350505050565b60606004805461053d9061146a565b5f336105dc818585610b7d565b5f6105c9826001610aa1565b5f5f6108bf858585610ce3565b6006546008549192506001600160a01b031690639dc29fac9085906108e49089611501565b6040516001600160e01b031960e085901b1681526001600160a01b03909216600483015260248201526044015f604051808303815f87803b158015610927575f5ffd5b505af1158015610939573d5f5f3e3d5ffd5b5092979650505050505050565b5f5f61095183610a47565b90508085111561097a57828582604051632e52afbb60e21b815260040161086193929190611518565b5f610984866105be565b9050610993338686848a610d2c565b95945050505050565b5f6105c9825f610aeb565b7f00000000000000000000000000000000000000000000000000000000000000006040516323b872dd60e01b8152336004820152306024820152604481018390526001600160a01b0391909116906323b872dd906064016020604051808303815f875af1158015610a1a573d5f5f3e3d5ffd5b505050506040513d601f19601f8201168201806040525081019061073691906114c9565b5f6105c961023f835b6001600160a01b0381165f908152602081905260408120546105c9565b610a6c610bda565b6001600160a01b038116610a9557604051631e4fbdf760e01b81525f6004820152602401610861565b610a9e81610c22565b50565b5f610758610aad61049f565b610ab8906001611539565b610ac35f600a61162f565b600254610ad09190611539565b85919085610dcb565b610ae68383836001610e0d565b505050565b5f610758610afa82600a61162f565b600254610b079190611539565b610b0f61049f565b610ad0906001611539565b6001600160a01b038381165f908152600160209081526040808320938616835292905220545f198110156107335781811015610b6f57828183604051637dc7a0d960e11b815260040161086193929190611518565b61073384848484035f610e0d565b6001600160a01b038316610ba657604051634b637e8f60e11b81525f6004820152602401610861565b6001600160a01b038216610bcf5760405163ec442f0560e01b81525f6004820152602401610861565b610ae6838383610ed1565b6005546001600160a01b031633146108575760405163118cdaa760e01b8152336004820152602401610861565b5f5f195f610c148561099c565b905061088233858784610c73565b600580546001600160a01b038381166001600160a01b0319831681179093556040519116919082907f8be0079c531659141344cd1fd0a4f28419497f9722a3daafe3b4186f6b6457e0905f90a35050565b610c7d8483610fe4565b610c878382611010565b826001600160a01b0316846001600160a01b03167fdcbc1c05240f31ff3ad067ef1ee35ce4997762752e3a095284754544f4c709d78484604051610cd5929190918252602082015260400190565b60405180910390a350505050565b5f5f610cee83610a3e565b905080851115610d1757828582604051633fa733bb60e21b815260040161086193929190611518565b5f610d21866105e6565b905061099333868689855b826001600160a01b0316856001600160a01b031614610d5057610d50838683610b1a565b610d5a8382611044565b610d648483611078565b826001600160a01b0316846001600160a01b0316866001600160a01b03167ffbde797d201c681b91056529119e0b02407c7bb96a4a2c75c01fc9667232c8db8585604051610dbc929190918252602082015260400190565b60405180910390a45050505050565b5f610df8610dd8836110a3565b8015610df357505f8480610dee57610dee61163d565b868809115b151590565b610e038686866110cf565b6109939190611539565b6001600160a01b038416610e365760405163e602df0560e01b81525f6004820152602401610861565b6001600160a01b038316610e5f57604051634a1406b160e11b81525f6004820152602401610861565b6001600160a01b038085165f908152600160209081526040808320938716835292905220829055801561073357826001600160a01b0316846001600160a01b03167f8c5be1e5ebec7d5bd14f71427d1e84f3dd0314c0f7b2291e5b200ac8c7c3b92584604051610cd591815260200190565b6001600160a01b038316610efb578060025f828254610ef09190611539565b90915550610f589050565b6001600160a01b0383165f9081526020819052604090205481811015610f3a5783818360405163391434e360e21b815260040161086193929190611518565b6001600160a01b0384165f9081526020819052604090209082900390555b6001600160a01b038216610f7457600280548290039055610f92565b6001600160a01b0382165f9081526020819052604090208054820190555b816001600160a01b0316836001600160a01b03167fddf252ad1be2c89b69c2b068fc378daa952ba7f163c4a11628f55a4df523b3ef83604051610fd791815260200190565b60405180910390a3505050565b6107367f000000000000000000000000000000000000000000000000000000000000000083308461117f565b6001600160a01b0382166110395760405163ec442f0560e01b81525f6004820152602401610861565b6107365f8383610ed1565b6001600160a01b03821661106d57604051634b637e8f60e11b81525f6004820152602401610861565b610736825f83610ed1565b6107367f000000000000000000000000000000000000000000000000000000000000000083836111b5565b5f60028260038111156110b8576110b8611651565b6110c29190611665565b60ff166001149050919050565b5f5f5f6110dc86866111ea565b91509150815f03611100578381816110f6576110f661163d565b0492505050610758565b818411611117576111176003851502601118611206565b5f848688095f868103871696879004966002600389028118808a02820302808a02820302808a02820302808a02820302808a02820302808a02909103029181900381900460010185841190960395909502919093039390930492909217029150509392505050565b61118d848484846001611217565b61073357604051635274afe760e01b81526001600160a01b0385166004820152602401610861565b6111c28383836001611284565b610ae657604051635274afe760e01b81526001600160a01b0384166004820152602401610861565b5f805f1983850993909202808410938190039390930393915050565b634e487b715f52806020526024601cfd5b6040516323b872dd60e01b5f8181526001600160a01b038781166004528616602452604485905291602083606481808c5af1925060015f51148316611273578383151615611267573d5f823e3d81fd5b5f883b113d1516831692505b604052505f60605295945050505050565b60405163a9059cbb60e01b5f8181526001600160a01b038616600452602485905291602083604481808b5af1925060015f511483166112da5783831516156112ce573d5f823e3d81fd5b5f873b113d1516831692505b60405250949350505050565b602081525f82518060208401528060208501604085015e5f604082850101526040601f19601f83011684010191505092915050565b5f6020828403121561132b575f5ffd5b5035919050565b80356001600160a01b0381168114611348575f5ffd5b919050565b5f5f6040838503121561135e575f5ffd5b61136783611332565b946020939093013593505050565b5f5f5f60608486031215611387575f5ffd5b61139084611332565b925061139e60208501611332565b929592945050506040919091013590565b5f602082840312156113bf575f5ffd5b61075882611332565b5f5f604083850312156113d9575f5ffd5b823591506113e960208401611332565b90509250929050565b5f5f5f60608486031215611404575f5ffd5b8335925061141460208501611332565b915061142260408501611332565b90509250925092565b5f5f6040838503121561143c575f5ffd5b61144583611332565b91506113e960208401611332565b5f60208284031215611463575f5ffd5b5051919050565b600181811c9082168061147e57607f821691505b60208210810361149c57634e487b7160e01b5f52602260045260245ffd5b50919050565b634e487b7160e01b5f52601160045260245ffd5b818103818111156105c9576105c96114a2565b5f602082840312156114d9575f5ffd5b81518015158114610758575f5ffd5b60ff81811683821601908111156105c9576105c96114a2565b80820281158282048414176105c9576105c96114a2565b6001600160a01b039390931683526020830191909152604082015260600190565b808201808211156105c9576105c96114a2565b6001815b60018411156115875780850481111561156b5761156b6114a2565b600184161561157957908102905b60019390931c928002611550565b935093915050565b5f8261159d575060016105c9565b816115a957505f6105c9565b81600181146115bf57600281146115c9576115e5565b60019150506105c9565b60ff8411156115da576115da6114a2565b50506001821b6105c9565b5060208310610133831016604e8410600b8410161715611608575081810a6105c9565b6116145f19848461154c565b805f1904821115611627576116276114a2565b029392505050565b5f61075860ff84168361158f565b634e487b7160e01b5f52601260045260245ffd5b634e487b7160e01b5f52602160045260245ffd5b5f60ff83168061168357634e487b7160e01b5f52601260045260245ffd5b8060ff8416069150509291505056fea26469706673582212201eca2c1519c8d147a350093c5899cf0653318d204901c063d8334b4cf61b950464736f6c634300081c0033",
  "linkReferences": {},
  "deployedLinkReferences": {},
  "immutableReferences": {
    "1164": [
      {
        "length": 32,
        "start": 770
      },
      {
        "length": 32,
        "start": 1186
      },
      {
        "length": 32,
        "start": 1525
      },
      {
        "length": 32,
        "start": 1697
      },
      {
        "length": 32,
        "start": 2473
      },
      {
        "length": 32,
        "start": 4073
      },
      {
        "length": 32,
        "start": 4221
      }
    ],
    "1166": [
      {
        "length": 32,
        "start": 1894
      }
    ]
  },
  "inputSourceName": "project/contracts/PotluckVault.sol",
  "buildInfoId": "solc-0_8_28-ff2aa5ad02b286dcd21c3df133f49c2f6a499c61"
}