{
  "_format": "hh3-artifact-1",
  "contractName": "PrizePool",
  "sourceName": "contracts/PrizePool.sol",
  "abi": [
    {
      "inputs": [
        {
          "internalType": "contract PotluckTickets",
          "name": "_tickets",
          "type": "address"
        },
        {
          "internalType": "contract IERC20",
          "name": "_prizeToken",
          "type": "address"
        }
      ],
      "stateMutability": "nonpayable",
      "type": "constructor"
    },
    {
      "inputs": [
        {
          "internalType": "address",
          "name": "owner",
          "type": "address"
        }
      ],
      "name": "OwnableInvalidOwner",
      "type": "error"
    },
    {
      "inputs": [
        {
          "internalType": "address",
          "name": "account",
          "type": "address"
        }
      ],
      "name": "OwnableUnauthorizedAccount",
      "type": "error"
    },
    {
      "anonymous": false,
      "inputs": [
        {
          "indexed": true,
          "internalType": "address",
          "name": "previousOwner",
          "type": "address"
        },
        {
          "indexed": true,
          "internalType": "address",
          "name": "newOwner",
          "type": "address"
        }
      ],
      "name": "OwnershipTransferred",
      "type": "event"
    },
    {
      "anonymous": false,
      "inputs": [
        {
          "indexed": false,
          "internalType": "address",
          "name": "winner",
          "type": "address"
        },
        {
          "indexed": false,
          "internalType": "uint256",
          "name": "amount",
          "type": "uint256"
        }
      ],
      "name": "WinnerChosen",
      "type": "event"
    },
    {
      "inputs": [],
      "name": "drawInterval",
      "outputs": [
        {
          "internalType": "uint256",
          "name": "",
          "type": "uint256"
        }
      ],
      "stateMutability": "view",
      "type": "function"
    },
    {
      "inputs": [],
      "name": "executeDraw",
      "outputs": [],
      "stateMutability": "nonpayable",
      "type": "function"
    },
    {
      "inputs": [],
      "name": "lastDrawAmount",
      "outputs": [
        {
          "internalType": "uint256",
          "name": "",
          "type": "uint256"
        }
      ],
      "stateMutability": "view",
      "type": "function"
    },
    {
      "inputs": [],
      "name": "lastWinner",
      "outputs": [
        {
          "internalType": "address",
          "name": "",
          "type": "address"
        }
      ],
      "stateMutability": "view",
      "type": "function"
    },
    {
      "inputs": [
        {
          "internalType": "address",
          "name": "to",
          "type": "address"
        },
        {
          "internalType": "uint256",
          "name": "amount",
          "type": "uint256"
        }
      ],
      "name": "manualSweep",
      "outputs": [],
      "stateMutability": "nonpayable",
      "type": "function"
    },
    {
      "inputs": [],
      "name": "nextDrawTime",
      "outputs": [
        {
          "internalType": "uint256",
          "name": "",
          "type": "uint256"
        }
      ],
      "stateMutability": "view",
      "type": "function"
    },
    {
      "inputs": [],
      "name": "owner",
      "outputs": [
        {
          "internalType": "address",
          "name": "",
          "type": "address"
        }
      ],
      "stateMutability": "view",
      "type": "function"
    },
    {
      "inputs": [],
      "name": "prizeToken",
      "outputs": [
        {
          "internalType": "contract IERC20",
          "name": "",
          "type": "address"
        }
      ],
      "stateMutability": "view",
      "type": "function"
    },
    {
      "inputs": [],
      "name": "renounceOwnership",
      "outputs": [],
      "stateMutability": "nonpayable",
      "type": "function"
    },
    {
      "inputs": [],
      "name": "tickets",
      "outputs": [
        {
          "internalType": "contract PotluckTickets",
          "name": "",
          "type": "address"
        }
      ],
      "stateMutability": "view",
      "type": "function"
    },
    {
      "inputs": [
        {
          "internalType": "address",
          "name": "newOwner",
          "type": "address"
        }
      ],
      "name": "transferOwnership",
      "outputs": [],
      "stateMutability": "nonpayable",
      "type": "function"
    }
  ],
  "bytecode": "0x608060405262093a80600655348015610016575f5ffd5b5060405161088438038061088483398101604081905261003591610112565b338061005a57604051631e4fbdf760e01b81525f600482015260240160405180910390fd5b610063816100ac565b50600180546001600160a01b038085166001600160a01b03199283161790925560028054928416929091169190911790556006546100a1904261014a565b6005555061016f9050565b5f80546001600160a01b038381166001600160a01b0319831681178455604051919092169283917f8be0079c531659141344cd1fd0a4f28419497f9722a3daafe3b4186f6b6457e09190a35050565b6001600160a01b038116811461010f575f5ffd5b50565b5f5f60408385031215610123575f5ffd5b825161012e816100fb565b602084015190925061013f816100fb565b809150509250929050565b8082018082111561016957634e487b7160e01b5f52601160045260245ffd5b92915050565b6107088061017c5f395ff3fe608060405234801561000f575f5ffd5b50600436106100a6575f3560e01c80638da5cb5b1161006e5780638da5cb5b1461010c578063bc06c4cc1461011c578063c34aaa4d14610125578063d0ef024a14610138578063f2fde38b1461014b578063fe1881841461015e575f5ffd5b806321858521146100aa5780632d49a7bf146100da578063421acb99146100e4578063715018a6146100fb57806374f47a7a14610103575b5f5ffd5b6001546100bd906001600160a01b031681565b6040516001600160a01b0390911681526020015b60405180910390f35b6100e2610171565b005b6100ed60045481565b6040519081526020016100d1565b6100e2610335565b6100ed60055481565b5f546001600160a01b03166100bd565b6100ed60065481565b6100e26101333660046105d6565b610348565b6002546100bd906001600160a01b031681565b6100e26101593660046105fe565b6103c9565b6003546100bd906001600160a01b031681565b6002546040516370a0823160e01b81523060048201525f916001600160a01b0316906370a0823190602401602060405180830381865afa1580156101b7573d5f5f3e3d5ffd5b505050506040513d601f19601f820116820180604052508101906101db919061061e565b90505f81116102245760405162461bcd60e51b815260206004820152601060248201526f115b5c1d1e481c1c9a5e99481c1bdbdb60821b60448201526064015b60405180910390fd5b5f61022d610406565b90505f606461023d846050610649565b610247919061067a565b60025460405163a9059cbb60e01b81526001600160a01b0385811660048301526024820184905292935091169063a9059cbb906044016020604051808303815f875af1158015610299573d5f5f3e3d5ffd5b505050506040513d601f19601f820116820180604052508101906102bd919061068d565b50600380546001600160a01b0319166001600160a01b03841617905560048190556006546102eb90426106ac565b600555604080516001600160a01b0384168152602081018390527fc5d1e2a43e1052756e222065802cb80a029bfaf7045b3df42c5c87b92e48de41910160405180910390a1505050565b61033d610540565b6103465f61056c565b565b610350610540565b60025460405163a9059cbb60e01b81526001600160a01b038481166004830152602482018490529091169063a9059cbb906044016020604051808303815f875af11580156103a0573d5f5f3e3d5ffd5b505050506040513d601f19601f820116820180604052508101906103c4919061068d565b505050565b6103d1610540565b6001600160a01b0381166103fa57604051631e4fbdf760e01b81525f600482015260240161021b565b6104038161056c565b50565b5f5f42443360405160200161044093929190928352602083019190915260601b6bffffffffffffffffffffffff1916604082015260540190565b60408051601f1981840301815282825280516020918201206001546318160ddd60e01b855292519094505f936001600160a01b03909316926318160ddd9260048083019391928290030181865afa15801561049d573d5f5f3e3d5ffd5b505050506040513d601f19601f820116820180604052508101906104c1919061061e565b90505f81116105065760405162461bcd60e51b8152602060048201526011602482015270139bc81d1a58dad95d1cc81a5cdcdd5959607a1b604482015260640161021b565b5f61051182846106bf565b905061051e6002826106bf565b5f0361052d5733935050505090565b5f546001600160a01b0316935050505090565b5f546001600160a01b031633146103465760405163118cdaa760e01b815233600482015260240161021b565b5f80546001600160a01b038381166001600160a01b0319831681178455604051919092169283917f8be0079c531659141344cd1fd0a4f28419497f9722a3daafe3b4186f6b6457e09190a35050565b80356001600160a01b03811681146105d1575f5ffd5b919050565b5f5f604083850312156105e7575f5ffd5b6105f0836105bb565b946020939093013593505050565b5f6020828403121561060e575f5ffd5b610617826105bb565b9392505050565b5f6020828403121561062e575f5ffd5b5051919050565b634e487b7160e01b5f52601160045260245ffd5b808202811582820484141761066057610660610635565b92915050565b634e487b7160e01b5f52601260045260245ffd5b5f8261068857610688610666565b500490565b5f6020828403121561069d575f5ffd5b81518015158114610617575f5ffd5b8082018082111561066057610660610635565b5f826106cd576106cd610666565b50069056fea2646970667358221220c28521a900eddab15f938e6e6c41053a50e458549d79e51ec2e21809f4f43bcf64736f6c634300081c0033",
  "linkReferences": {},
  "deployedLinkReferences": {},
  "immutableReferences": {},
  "inputSourceName": "project/contracts/PrizePool.sol",
  "buildInfoId": "solc-0_8_28-26bdcaca9c0d26b798db8819facb4d4d0904c960"
}